{
  "_format": "hh-sol-artifact-1",
  "contractName": "CredLinkContract",
  "sourceName": "contracts/CredLink.sol",
  "abi": [
    {
      "inputs": [
        {
          "internalType": "address",
          "name": "_tokenAddress",
          "type": "address"
        }
      ],
      "stateMutability": "nonpayable",
      "type": "constructor"
    },
    {
      "inputs": [],
      "name": "InsufficientBalance",
      "type": "error"
    },
    {
      "anonymous": false,
      "inputs": [
        {
          "indexed": true,
          "internalType": "address",
          "name": "_approverAddress",
          "type": "address"
        },
        {
          "indexed": true,
          "internalType": "address",
          "name": "_borrowerAddress",
          "type": "address"
        },
        {
          "indexed": true,
          "internalType": "uint256",
          "name": "_amount",
          "type": "uint256"
        }
      ],
      "name": "BorrowerApproveSuccessful",
      "type": "event"
    },
    {
      "anonymous": false,
      "inputs": [
        {
          "indexed": true,
          "internalType": "address",
          "name": "_depositor",
          "type": "address"
        },
        {
          "indexed": true,
          "internalType": "uint256",
          "name": "_amount",
          "type": "uint256"
        }
      ],
      "name": "LenderDepositSuccessful",
      "type": "event"
    },
    {
      "inputs": [
        {
          "internalType": "uint256",
          "name": "_loanId",
          "type": "uint256"
        },
        {
          "internalType": "uint256",
          "name": "_duration",
          "type": "uint256"
        },
        {
          "internalType": "uint256",
          "name": "_amount",
          "type": "uint256"
        }
      ],
      "name": "applyForLoan",
      "outputs": [],
      "stateMutability": "nonpayable",
      "type": "function"
    },
    {
      "inputs": [
        {
          "internalType": "address",
          "name": "_borrowerToApprove",
          "type": "address"
        }
      ],
      "name": "approveBorrower",
      "outputs": [],
      "stateMutability": "nonpayable",
      "type": "function"
    },
    {
      "inputs": [
        {
          "internalType": "uint256",
          "name": "_amount",
          "type": "uint256"
        }
      ],
      "name": "lenderDeposit",
      "outputs": [],
      "stateMutability": "nonpayable",
      "type": "function"
    },
    {
      "inputs": [],
      "name": "openDispute",
      "outputs": [],
      "stateMutability": "nonpayable",
      "type": "function"
    },
    {
      "inputs": [
        {
          "internalType": "uint256",
          "name": "loanId",
          "type": "uint256"
        }
      ],
      "name": "repayLoan",
      "outputs": [],
      "stateMutability": "nonpayable",
      "type": "function"
    },
    {
      "inputs": [],
      "name": "viewApproveBorrowers",
      "outputs": [],
      "stateMutability": "nonpayable",
      "type": "function"
    },
    {
      "inputs": [],
      "name": "viewAvailableLoans",
      "outputs": [],
      "stateMutability": "nonpayable",
      "type": "function"
    },
    {
      "inputs": [],
      "name": "viewInterestedBorrowers",
      "outputs": [],
      "stateMutability": "nonpayable",
      "type": "function"
    }
  ],
  "bytecode": "0x608060405234801561001057600080fd5b50604051610caa380380610caa8339818101604052810190610032919061011c565b336000806101000a81548173ffffffffffffffffffffffffffffffffffffffff021916908373ffffffffffffffffffffffffffffffffffffffff16021790555080600160006101000a81548173ffffffffffffffffffffffffffffffffffffffff021916908373ffffffffffffffffffffffffffffffffffffffff16021790555050610149565b600080fd5b600073ffffffffffffffffffffffffffffffffffffffff82169050919050565b60006100e9826100be565b9050919050565b6100f9816100de565b811461010457600080fd5b50565b600081519050610116816100f0565b92915050565b600060208284031215610132576101316100b9565b5b600061014084828501610107565b91505092915050565b610b52806101586000396000f3fe608060405234801561001057600080fd5b50600436106100885760003560e01c8063ab7b1c891161005b578063ab7b1c89146100d9578063e1908f55146100f5578063f8f8cac0146100ff578063fc2457831461010957610088565b80634fd6137c1461008d5780634ff70cce1461009757806395f701fb146100b35780639a471920146100bd575b600080fd5b610095610125565b005b6100b160048036038101906100ac919061070e565b610127565b005b6100bb610385565b005b6100d760048036038101906100d29190610799565b610387565b005b6100f360048036038101906100ee919061070e565b6106c7565b005b6100fd6106ca565b005b6101076106cc565b005b610123600480360381019061011e91906107c6565b6106ce565b005b565b6000811061016a576040517f08c379a000000000000000000000000000000000000000000000000000000000815260040161016190610876565b60405180910390fd5b6000600160009054906101000a900473ffffffffffffffffffffffffffffffffffffffff1673ffffffffffffffffffffffffffffffffffffffff166370a08231336040518263ffffffff1660e01b81526004016101c791906108a5565b602060405180830381865afa1580156101e4573d6000803e3d6000fd5b505050506040513d601f19601f8201168201806040525081019061020891906108d5565b905080821115610244576040517ff4d678b800000000000000000000000000000000000000000000000000000000815260040160405180910390fd5b600160009054906101000a900473ffffffffffffffffffffffffffffffffffffffff1673ffffffffffffffffffffffffffffffffffffffff166323b872dd3330856040518463ffffffff1660e01b81526004016102a393929190610911565b6020604051808303816000875af11580156102c2573d6000803e3d6000fd5b505050506040513d601f19601f820116820180604052508101906102e69190610980565b5081600260003373ffffffffffffffffffffffffffffffffffffffff1673ffffffffffffffffffffffffffffffffffffffff168152602001908152602001600020600082825461033691906109dc565b92505081905550813373ffffffffffffffffffffffffffffffffffffffff167f0fd9fe15ac290a36d490401f9a262728d1d83a8eefd15b9d29afb7e5ec5217e460405160405180910390a35050565b565b600073ffffffffffffffffffffffffffffffffffffffff168173ffffffffffffffffffffffffffffffffffffffff16036103f6576040517f08c379a00000000000000000000000000000000000000000000000000000000081526004016103ed90610a5c565b60405180910390fd5b600560008273ffffffffffffffffffffffffffffffffffffffff1673ffffffffffffffffffffffffffffffffffffffff16815260200190815260200160002060020160009054906101000a900460ff1615610486576040517f08c379a000000000000000000000000000000000000000000000000000000000815260040161047d90610ac8565b60405180910390fd5b6000600560008373ffffffffffffffffffffffffffffffffffffffff1673ffffffffffffffffffffffffffffffffffffffff16815260200190815260200160002060010154905080600260003373ffffffffffffffffffffffffffffffffffffffff1673ffffffffffffffffffffffffffffffffffffffff16815260200190815260200160002054106106685780600260003373ffffffffffffffffffffffffffffffffffffffff1673ffffffffffffffffffffffffffffffffffffffff16815260200190815260200160002060008282546105629190610ae8565b925050819055506001600560008473ffffffffffffffffffffffffffffffffffffffff1673ffffffffffffffffffffffffffffffffffffffff16815260200190815260200160002060020160006101000a81548160ff021916908315150217905550600160009054906101000a900473ffffffffffffffffffffffffffffffffffffffff1673ffffffffffffffffffffffffffffffffffffffff166323b872dd3084846040518463ffffffff1660e01b815260040161062393929190610911565b6020604051808303816000875af1158015610642573d6000803e3d6000fd5b505050506040513d601f19601f820116820180604052508101906106669190610980565b505b808273ffffffffffffffffffffffffffffffffffffffff163373ffffffffffffffffffffffffffffffffffffffff167fbf8271f8b8b3f268926413d59de46e2381450667289a8179a7222f93750777da60405160405180910390a45050565b50565b565b565b505050565b600080fd5b6000819050919050565b6106eb816106d8565b81146106f657600080fd5b50565b600081359050610708816106e2565b92915050565b600060208284031215610724576107236106d3565b5b6000610732848285016106f9565b91505092915050565b600073ffffffffffffffffffffffffffffffffffffffff82169050919050565b60006107668261073b565b9050919050565b6107768161075b565b811461078157600080fd5b50565b6000813590506107938161076d565b92915050565b6000602082840312156107af576107ae6106d3565b5b60006107bd84828501610784565b91505092915050565b6000806000606084860312156107df576107de6106d3565b5b60006107ed868287016106f9565b93505060206107fe868287016106f9565b925050604061080f868287016106f9565b9150509250925092565b600082825260208201905092915050565b7f63616e6e6f742073656e64207a65726f20746f6b656e00000000000000000000600082015250565b6000610860601683610819565b915061086b8261082a565b602082019050919050565b6000602082019050818103600083015261088f81610853565b9050919050565b61089f8161075b565b82525050565b60006020820190506108ba6000830184610896565b92915050565b6000815190506108cf816106e2565b92915050565b6000602082840312156108eb576108ea6106d3565b5b60006108f9848285016108c0565b91505092915050565b61090b816106d8565b82525050565b60006060820190506109266000830186610896565b6109336020830185610896565b6109406040830184610902565b949350505050565b60008115159050919050565b61095d81610948565b811461096857600080fd5b50565b60008151905061097a81610954565b92915050565b600060208284031215610996576109956106d3565b5b60006109a48482850161096b565b91505092915050565b7f4e487b7100000000000000000000000000000000000000000000000000000000600052601160045260246000fd5b60006109e7826106d8565b91506109f2836106d8565b9250828201905080821115610a0a57610a096109ad565b5b92915050565b7f63616e6e6f742073656e6420746f2061646472657373207a65726f0000000000600082015250565b6000610a46601b83610819565b9150610a5182610a10565b602082019050919050565b60006020820190508181036000830152610a7581610a39565b9050919050565b7f63616e6e6f7420626f72726f77206d756c7469706c652074696d657300000000600082015250565b6000610ab2601c83610819565b9150610abd82610a7c565b602082019050919050565b60006020820190508181036000830152610ae181610aa5565b9050919050565b6000610af3826106d8565b9150610afe836106d8565b9250828203905081811115610b1657610b156109ad565b5b9291505056fea2646970667358221220224951a222b8c11572acaea48a5ae8df704dbccbf4632b089ace69b2e77a5f7064736f6c634300081b0033",
  "linkReferences": {},
  "deployedLinkReferences": {}
}